{
    "abi": [
        {
            "type": "constructor",
            "inputs": [
                {
                    "name": "_x",
                    "type": "uint256",
                    "internalType": "uint256"
                }
            ],
            "stateMutability": "nonpayable"
        },
        {
            "type": "function",
            "name": "changeX",
            "inputs": [
                {
                    "name": "_x",
                    "type": "uint256",
                    "internalType": "uint256"
                }
            ],
            "outputs": [],
            "stateMutability": "nonpayable"
        },
        {
            "type": "function",
            "name": "depositETH",
            "inputs": [
                {
                    "name": "amount",
                    "type": "uint256",
                    "internalType": "uint256"
                }
            ],
            "outputs": [],
            "stateMutability": "payable"
        },
        {
            "type": "function",
            "name": "x",
            "inputs": [],
            "outputs": [
                {
                    "name": "",
                    "type": "uint256",
                    "internalType": "uint256"
                }
            ],
            "stateMutability": "view"
        },
        {
            "type": "event",
            "name": "XWasChanged",
            "inputs": [
                {
                    "name": "_from",
                    "type": "uint256",
                    "indexed": false,
                    "internalType": "uint256"
                },
                {
                    "name": "_to",
                    "type": "uint256",
                    "indexed": false,
                    "internalType": "uint256"
                }
            ],
            "anonymous": false
        }
    ],
    "bytecode": {
        "object": "0x6080604052607d600055348015601457600080fd5b506040516102073803806102078339810160408190526031916074565b60005460408051918252602082018390527f5e7d811157cdd9105f91e63f7ef00916403b4f75efa70c63743e25d854979b4f910160405180910390a1600055608c565b600060208284031215608557600080fd5b5051919050565b61016c8061009b6000396000f3fe6080604052600436106100345760003560e01c80630c55699c146100395780635358fbda146100615780639435337e14610076575b600080fd5b34801561004557600080fd5b5061004f60005481565b60405190815260200160405180910390f35b61007461006f36600461011d565b610096565b005b34801561008257600080fd5b5061007461009136600461011d565b6100dc565b662386f26fc100008110156100d95760405162461bcd60e51b815260206004820152600560248201526432b93937b960d91b604482015260640160405180910390fd5b50565b60005460408051918252602082018390527f5e7d811157cdd9105f91e63f7ef00916403b4f75efa70c63743e25d854979b4f910160405180910390a1600055565b60006020828403121561012f57600080fd5b503591905056fea2646970667358221220c001507e8c776b24f10d0344c7264177112666b201b4b08951c32d9992bde8b864736f6c63430008190033",
        "linkReferences": {}
    },
    "methodIdentifiers": {
        "changeX(uint256)": "9435337e",
        "depositETH(uint256)": "5358fbda",
        "x()": "0c55699c"
    },
    "id": 0
}