{"abi":[{"type":"constructor","inputs":[{"name":"_x","type":"uint256","internalType":"uint256"}],"stateMutability":"nonpayable"},{"type":"function","name":"changeX","inputs":[{"name":"_x","type":"uint256","internalType":"uint256"}],"outputs":[],"stateMutability":"nonpayable"},{"type":"function","name":"depositETH","inputs":[{"name":"amount","type":"uint256","internalType":"uint256"}],"outputs":[],"stateMutability":"payable"},{"type":"function","name":"x","inputs":[],"outputs":[{"name":"","type":"uint256","internalType":"uint256"}],"stateMutability":"view"}],"bytecode":{"object":"0x6080604052607d600055348015601457600080fd5b5060405161017a38038061017a8339810160408190526031916038565b6000556050565b600060208284031215604957600080fd5b5051919050565b61011b8061005f6000396000f3fe60806040526004361060305760003560e01c80630c55699c1460355780635358fbda14605b5780639435337e14606c575b600080fd5b348015604057600080fd5b50604960005481565b60405190815260200160405180910390f35b606a606636600460cd565b6088565b005b348015607757600080fd5b50606a608336600460cd565b600055565b662386f26fc1000081101560ca5760405162461bcd60e51b815260206004820152600560248201526432b93937b960d91b604482015260640160405180910390fd5b50565b60006020828403121560de57600080fd5b503591905056fea26469706673582212207e495ac6c900d7dfa6f181e40010c4d42d69f34ae41b6082078a94c63ca31e9964736f6c63430008190033","linkReferences":{}},"methodIdentifiers":{"changeX(uint256)":"9435337e","depositETH(uint256)":"5358fbda","x()":"0c55699c"},"id":0}